{
  "_format": "hh-sol-artifact-1",
  "contractName": "tokenErc20",
  "sourceName": "contracts/tokenErc20.sol",
  "abi": [
    {
      "inputs": [],
      "stateMutability": "nonpayable",
      "type": "constructor"
    },
    {
      "inputs": [],
      "name": "ECDSAInvalidSignature",
      "type": "error"
    },
    {
      "inputs": [
        {
          "internalType": "uint256",
          "name": "length",
          "type": "uint256"
        }
      ],
      "name": "ECDSAInvalidSignatureLength",
      "type": "error"
    },
    {
      "inputs": [
        {
          "internalType": "bytes32",
          "name": "s",
          "type": "bytes32"
        }
      ],
      "name": "ECDSAInvalidSignatureS",
      "type": "error"
    },
    {
      "inputs": [
        {
          "internalType": "address",
          "name": "spender",
          "type": "address"
        },
        {
          "internalType": "uint256",
          "name": "allowance",
          "type": "uint256"
        },
        {
          "internalType": "uint256",
          "name": "needed",
          "type": "uint256"
        }
      ],
      "name": "ERC20InsufficientAllowance",
      "type": "error"
    },
    {
      "inputs": [
        {
          "internalType": "address",
          "name": "sender",
          "type": "address"
        },
        {
          "internalType": "uint256",
          "name": "balance",
          "type": "uint256"
        },
        {
          "internalType": "uint256",
          "name": "needed",
          "type": "uint256"
        }
      ],
      "name": "ERC20InsufficientBalance",
      "type": "error"
    },
    {
      "inputs": [
        {
          "internalType": "address",
          "name": "approver",
          "type": "address"
        }
      ],
      "name": "ERC20InvalidApprover",
      "type": "error"
    },
    {
      "inputs": [
        {
          "internalType": "address",
          "name": "receiver",
          "type": "address"
        }
      ],
      "name": "ERC20InvalidReceiver",
      "type": "error"
    },
    {
      "inputs": [
        {
          "internalType": "address",
          "name": "sender",
          "type": "address"
        }
      ],
      "name": "ERC20InvalidSender",
      "type": "error"
    },
    {
      "inputs": [
        {
          "internalType": "address",
          "name": "spender",
          "type": "address"
        }
      ],
      "name": "ERC20InvalidSpender",
      "type": "error"
    },
    {
      "inputs": [
        {
          "internalType": "uint256",
          "name": "deadline",
          "type": "uint256"
        }
      ],
      "name": "ERC2612ExpiredSignature",
      "type": "error"
    },
    {
      "inputs": [
        {
          "internalType": "address",
          "name": "signer",
          "type": "address"
        },
        {
          "internalType": "address",
          "name": "owner",
          "type": "address"
        }
      ],
      "name": "ERC2612InvalidSigner",
      "type": "error"
    },
    {
      "inputs": [
        {
          "internalType": "address",
          "name": "account",
          "type": "address"
        },
        {
          "internalType": "uint256",
          "name": "currentNonce",
          "type": "uint256"
        }
      ],
      "name": "InvalidAccountNonce",
      "type": "error"
    },
    {
      "inputs": [],
      "name": "InvalidShortString",
      "type": "error"
    },
    {
      "inputs": [
        {
          "internalType": "string",
          "name": "str",
          "type": "string"
        }
      ],
      "name": "StringTooLong",
      "type": "error"
    },
    {
      "anonymous": false,
      "inputs": [
        {
          "indexed": true,
          "internalType": "address",
          "name": "owner",
          "type": "address"
        },
        {
          "indexed": true,
          "internalType": "address",
          "name": "spender",
          "type": "address"
        },
        {
          "indexed": false,
          "internalType": "uint256",
          "name": "value",
          "type": "uint256"
        }
      ],
      "name": "Approval",
      "type": "event"
    },
    {
      "anonymous": false,
      "inputs": [],
      "name": "EIP712DomainChanged",
      "type": "event"
    },
    {
      "anonymous": false,
      "inputs": [
        {
          "indexed": true,
          "internalType": "address",
          "name": "from",
          "type": "address"
        },
        {
          "indexed": true,
          "internalType": "address",
          "name": "to",
          "type": "address"
        },
        {
          "indexed": false,
          "internalType": "uint256",
          "name": "value",
          "type": "uint256"
        }
      ],
      "name": "Transfer",
      "type": "event"
    },
    {
      "inputs": [],
      "name": "DOMAIN_SEPARATOR",
      "outputs": [
        {
          "internalType": "bytes32",
          "name": "",
          "type": "bytes32"
        }
      ],
      "stateMutability": "view",
      "type": "function"
    },
    {
      "inputs": [
        {
          "internalType": "address",
          "name": "owner",
          "type": "address"
        },
        {
          "internalType": "address",
          "name": "spender",
          "type": "address"
        }
      ],
      "name": "allowance",
      "outputs": [
        {
          "internalType": "uint256",
          "name": "",
          "type": "uint256"
        }
      ],
      "stateMutability": "view",
      "type": "function"
    },
    {
      "inputs": [
        {
          "internalType": "address",
          "name": "spender",
          "type": "address"
        },
        {
          "internalType": "uint256",
          "name": "value",
          "type": "uint256"
        }
      ],
      "name": "approve",
      "outputs": [
        {
          "internalType": "bool",
          "name": "",
          "type": "bool"
        }
      ],
      "stateMutability": "nonpayable",
      "type": "function"
    },
    {
      "inputs": [
        {
          "internalType": "address",
          "name": "account",
          "type": "address"
        }
      ],
      "name": "balanceOf",
      "outputs": [
        {
          "internalType": "uint256",
          "name": "",
          "type": "uint256"
        }
      ],
      "stateMutability": "view",
      "type": "function"
    },
    {
      "inputs": [],
      "name": "decimals",
      "outputs": [
        {
          "internalType": "uint8",
          "name": "",
          "type": "uint8"
        }
      ],
      "stateMutability": "pure",
      "type": "function"
    },
    {
      "inputs": [],
      "name": "eip712Domain",
      "outputs": [
        {
          "internalType": "bytes1",
          "name": "fields",
          "type": "bytes1"
        },
        {
          "internalType": "string",
          "name": "name",
          "type": "string"
        },
        {
          "internalType": "string",
          "name": "version",
          "type": "string"
        },
        {
          "internalType": "uint256",
          "name": "chainId",
          "type": "uint256"
        },
        {
          "internalType": "address",
          "name": "verifyingContract",
          "type": "address"
        },
        {
          "internalType": "bytes32",
          "name": "salt",
          "type": "bytes32"
        },
        {
          "internalType": "uint256[]",
          "name": "extensions",
          "type": "uint256[]"
        }
      ],
      "stateMutability": "view",
      "type": "function"
    },
    {
      "inputs": [
        {
          "internalType": "address",
          "name": "to",
          "type": "address"
        },
        {
          "internalType": "uint256",
          "name": "amount",
          "type": "uint256"
        }
      ],
      "name": "mint",
      "outputs": [],
      "stateMutability": "nonpayable",
      "type": "function"
    },
    {
      "inputs": [],
      "name": "name",
      "outputs": [
        {
          "internalType": "string",
          "name": "",
          "type": "string"
        }
      ],
      "stateMutability": "view",
      "type": "function"
    },
    {
      "inputs": [
        {
          "internalType": "address",
          "name": "owner",
          "type": "address"
        }
      ],
      "name": "nonces",
      "outputs": [
        {
          "internalType": "uint256",
          "name": "",
          "type": "uint256"
        }
      ],
      "stateMutability": "view",
      "type": "function"
    },
    {
      "inputs": [
        {
          "internalType": "address",
          "name": "owner",
          "type": "address"
        },
        {
          "internalType": "address",
          "name": "spender",
          "type": "address"
        },
        {
          "internalType": "uint256",
          "name": "value",
          "type": "uint256"
        },
        {
          "internalType": "uint256",
          "name": "deadline",
          "type": "uint256"
        },
        {
          "internalType": "uint8",
          "name": "v",
          "type": "uint8"
        },
        {
          "internalType": "bytes32",
          "name": "r",
          "type": "bytes32"
        },
        {
          "internalType": "bytes32",
          "name": "s",
          "type": "bytes32"
        }
      ],
      "name": "permit",
      "outputs": [],
      "stateMutability": "nonpayable",
      "type": "function"
    },
    {
      "inputs": [],
      "name": "symbol",
      "outputs": [
        {
          "internalType": "string",
          "name": "",
          "type": "string"
        }
      ],
      "stateMutability": "view",
      "type": "function"
    },
    {
      "inputs": [],
      "name": "totalSupply",
      "outputs": [
        {
          "internalType": "uint256",
          "name": "",
          "type": "uint256"
        }
      ],
      "stateMutability": "view",
      "type": "function"
    },
    {
      "inputs": [
        {
          "internalType": "address",
          "name": "to",
          "type": "address"
        },
        {
          "internalType": "uint256",
          "name": "value",
          "type": "uint256"
        }
      ],
      "name": "transfer",
      "outputs": [
        {
          "internalType": "bool",
          "name": "",
          "type": "bool"
        }
      ],
      "stateMutability": "nonpayable",
      "type": "function"
    },
    {
      "inputs": [
        {
          "internalType": "address",
          "name": "from",
          "type": "address"
        },
        {
          "internalType": "address",
          "name": "to",
          "type": "address"
        },
        {
          "internalType": "uint256",
          "name": "value",
          "type": "uint256"
        }
      ],
      "name": "transferFrom",
      "outputs": [
        {
          "internalType": "bool",
          "name": "",
          "type": "bool"
        }
      ],
      "stateMutability": "nonpayable",
      "type": "function"
    }
  ],
  "bytecode": "0x6101606040523480156200001257600080fd5b506040518060400160405280600981526020017f555344432066616b650000000000000000000000000000000000000000000000815250806040518060400160405280600181526020017f31000000000000000000000000000000000000000000000000000000000000008152506040518060400160405280600981526020017f5573644346616b654e00000000000000000000000000000000000000000000008152506040518060400160405280600581526020017f55534443460000000000000000000000000000000000000000000000000000008152508160039081620000fd919062000841565b5080600490816200010f919062000841565b50505062000128600583620001de60201b90919060201c565b610120818152505062000146600682620001de60201b90919060201c565b6101408181525050818051906020012060e08181525050808051906020012061010081815250504660a08181525050620001856200023660201b60201c565b608081815250503073ffffffffffffffffffffffffffffffffffffffff1660c08173ffffffffffffffffffffffffffffffffffffffff1681525050505050620001d833620186a06200029360201b60201c565b62000c2c565b60006020835110156200020457620001fc836200032060201b60201c565b905062000230565b8262000216836200038d60201b60201c565b600001908162000227919062000841565b5060ff60001b90505b92915050565b60007f8b73c3c69bb8fe3d512ecc4cf759cc79239f7b179b0ffacaa9a75d522b39400f60e0516101005146306040516020016200027895949392919062000999565b60405160208183030381529060405280519060200120905090565b600073ffffffffffffffffffffffffffffffffffffffff168273ffffffffffffffffffffffffffffffffffffffff1603620003085760006040517fec442f05000000000000000000000000000000000000000000000000000000008152600401620002ff9190620009f6565b60405180910390fd5b6200031c600083836200039760201b60201c565b5050565b600080829050601f815111156200037057826040517f305a27a900000000000000000000000000000000000000000000000000000000815260040162000367919062000aa2565b60405180910390fd5b8051816200037e9062000af8565b60001c1760001b915050919050565b6000819050919050565b600073ffffffffffffffffffffffffffffffffffffffff168373ffffffffffffffffffffffffffffffffffffffff1603620003ed578060026000828254620003e0919062000b97565b92505081905550620004c3565b60008060008573ffffffffffffffffffffffffffffffffffffffff1673ffffffffffffffffffffffffffffffffffffffff168152602001908152602001600020549050818110156200047c578381836040517fe450d38c000000000000000000000000000000000000000000000000000000008152600401620004739392919062000bd2565b60405180910390fd5b8181036000808673ffffffffffffffffffffffffffffffffffffffff1673ffffffffffffffffffffffffffffffffffffffff16815260200190815260200160002081905550505b600073ffffffffffffffffffffffffffffffffffffffff168273ffffffffffffffffffffffffffffffffffffffff16036200050e57806002600082825403925050819055506200055b565b806000808473ffffffffffffffffffffffffffffffffffffffff1673ffffffffffffffffffffffffffffffffffffffff168152602001908152602001600020600082825401925050819055505b8173ffffffffffffffffffffffffffffffffffffffff168373ffffffffffffffffffffffffffffffffffffffff167fddf252ad1be2c89b69c2b068fc378daa952ba7f163c4a11628f55a4df523b3ef83604051620005ba919062000c0f565b60405180910390a3505050565b600081519050919050565b7f4e487b7100000000000000000000000000000000000000000000000000000000600052604160045260246000fd5b7f4e487b7100000000000000000000000000000000000000000000000000000000600052602260045260246000fd5b600060028204905060018216806200064957607f821691505b6020821081036200065f576200065e62000601565b5b50919050565b60008190508160005260206000209050919050565b60006020601f8301049050919050565b600082821b905092915050565b600060088302620006c97fffffffffffffffffffffffffffffffffffffffffffffffffffffffffffffffff826200068a565b620006d586836200068a565b95508019841693508086168417925050509392505050565b6000819050919050565b6000819050919050565b6000620007226200071c6200071684620006ed565b620006f7565b620006ed565b9050919050565b6000819050919050565b6200073e8362000701565b620007566200074d8262000729565b84845462000697565b825550505050565b600090565b6200076d6200075e565b6200077a81848462000733565b505050565b5b81811015620007a2576200079660008262000763565b60018101905062000780565b5050565b601f821115620007f157620007bb8162000665565b620007c6846200067a565b81016020851015620007d6578190505b620007ee620007e5856200067a565b8301826200077f565b50505b505050565b600082821c905092915050565b60006200081660001984600802620007f6565b1980831691505092915050565b600062000831838362000803565b9150826002028217905092915050565b6200084c82620005c7565b67ffffffffffffffff811115620008685762000867620005d2565b5b62000874825462000630565b62000881828285620007a6565b600060209050601f831160018114620008b95760008415620008a4578287015190505b620008b0858262000823565b86555062000920565b601f198416620008c98662000665565b60005b82811015620008f357848901518255600182019150602085019450602081019050620008cc565b868310156200091357848901516200090f601f89168262000803565b8355505b6001600288020188555050505b505050505050565b6000819050919050565b6200093d8162000928565b82525050565b6200094e81620006ed565b82525050565b600073ffffffffffffffffffffffffffffffffffffffff82169050919050565b6000620009818262000954565b9050919050565b620009938162000974565b82525050565b600060a082019050620009b0600083018862000932565b620009bf602083018762000932565b620009ce604083018662000932565b620009dd606083018562000943565b620009ec608083018462000988565b9695505050505050565b600060208201905062000a0d600083018462000988565b92915050565b600082825260208201905092915050565b60005b8381101562000a4457808201518184015260208101905062000a27565b60008484015250505050565b6000601f19601f8301169050919050565b600062000a6e82620005c7565b62000a7a818562000a13565b935062000a8c81856020860162000a24565b62000a978162000a50565b840191505092915050565b6000602082019050818103600083015262000abe818462000a61565b905092915050565b600081519050919050565b6000819050602082019050919050565b600062000aef825162000928565b80915050919050565b600062000b058262000ac6565b8262000b118462000ad1565b905062000b1e8162000ae1565b9250602082101562000b615762000b5c7fffffffffffffffffffffffffffffffffffffffffffffffffffffffffffffffff836020036008026200068a565b831692505b5050919050565b7f4e487b7100000000000000000000000000000000000000000000000000000000600052601160045260246000fd5b600062000ba482620006ed565b915062000bb183620006ed565b925082820190508082111562000bcc5762000bcb62000b68565b5b92915050565b600060608201905062000be9600083018662000988565b62000bf8602083018562000943565b62000c07604083018462000943565b949350505050565b600060208201905062000c26600083018462000943565b92915050565b60805160a05160c05160e051610100516101205161014051611cde62000c876000396000610b0501526000610aca0152600061101a01526000610ff90152600061094301526000610999015260006109c20152611cde6000f3fe608060405234801561001057600080fd5b50600436106100ea5760003560e01c806370a082311161008c57806395d89b411161006657806395d89b4114610267578063a9059cbb14610285578063d505accf146102b5578063dd62ed3e146102d1576100ea565b806370a08231146101e35780637ecebe001461021357806384b0196e14610243576100ea565b806323b872dd116100c857806323b872dd1461015b578063313ce5671461018b5780633644e515146101a957806340c10f19146101c7576100ea565b806306fdde03146100ef578063095ea7b31461010d57806318160ddd1461013d575b600080fd5b6100f7610301565b6040516101049190611507565b60405180910390f35b610127600480360381019061012291906115c2565b610393565b604051610134919061161d565b60405180910390f35b6101456103b6565b6040516101529190611647565b60405180910390f35b61017560048036038101906101709190611662565b6103c0565b604051610182919061161d565b60405180910390f35b6101936103ef565b6040516101a091906116d1565b60405180910390f35b6101b16103f8565b6040516101be9190611705565b60405180910390f35b6101e160048036038101906101dc91906115c2565b610407565b005b6101fd60048036038101906101f89190611720565b610415565b60405161020a9190611647565b60405180910390f35b61022d60048036038101906102289190611720565b61045d565b60405161023a9190611647565b60405180910390f35b61024b61046f565b60405161025e9796959493929190611855565b60405180910390f35b61026f610519565b60405161027c9190611507565b60405180910390f35b61029f600480360381019061029a91906115c2565b6105ab565b6040516102ac919061161d565b60405180910390f35b6102cf60048036038101906102ca9190611931565b6105ce565b005b6102eb60048036038101906102e691906119d3565b610716565b6040516102f89190611647565b60405180910390f35b60606003805461031090611a42565b80601f016020809104026020016040519081016040528092919081815260200182805461033c90611a42565b80156103895780601f1061035e57610100808354040283529160200191610389565b820191906000526020600020905b81548152906001019060200180831161036c57829003601f168201915b5050505050905090565b60008061039e61079d565b90506103ab8185856107a5565b600191505092915050565b6000600254905090565b6000806103cb61079d565b90506103d88582856107b7565b6103e385858561084b565b60019150509392505050565b60006006905090565b600061040261093f565b905090565b61041182826109f6565b5050565b60008060008373ffffffffffffffffffffffffffffffffffffffff1673ffffffffffffffffffffffffffffffffffffffff168152602001908152602001600020549050919050565b600061046882610a78565b9050919050565b600060608060008060006060610483610ac1565b61048b610afc565b46306000801b600067ffffffffffffffff8111156104ac576104ab611a73565b5b6040519080825280602002602001820160405280156104da5781602001602082028036833780820191505090505b507f0f00000000000000000000000000000000000000000000000000000000000000959493929190965096509650965096509650965090919293949596565b60606004805461052890611a42565b80601f016020809104026020016040519081016040528092919081815260200182805461055490611a42565b80156105a15780601f10610576576101008083540402835291602001916105a1565b820191906000526020600020905b81548152906001019060200180831161058457829003601f168201915b5050505050905090565b6000806105b661079d565b90506105c381858561084b565b600191505092915050565b8342111561061357836040517f6279130200000000000000000000000000000000000000000000000000000000815260040161060a9190611647565b60405180910390fd5b60007f6e71edae12b1b97f4d1f60370fef10105fa2faae0126114a169c64845d6126c98888886106428c610b37565b8960405160200161065896959493929190611aa2565b604051602081830303815290604052805190602001209050600061067b82610b8e565b9050600061068b82878787610ba8565b90508973ffffffffffffffffffffffffffffffffffffffff168173ffffffffffffffffffffffffffffffffffffffff16146106ff57808a6040517f4b800e460000000000000000000000000000000000000000000000000000000081526004016106f6929190611b03565b60405180910390fd5b61070a8a8a8a6107a5565b50505050505050505050565b6000600160008473ffffffffffffffffffffffffffffffffffffffff1673ffffffffffffffffffffffffffffffffffffffff16815260200190815260200160002060008373ffffffffffffffffffffffffffffffffffffffff1673ffffffffffffffffffffffffffffffffffffffff16815260200190815260200160002054905092915050565b600033905090565b6107b28383836001610bd8565b505050565b60006107c38484610716565b90507fffffffffffffffffffffffffffffffffffffffffffffffffffffffffffffffff81146108455781811015610835578281836040517ffb8f41b200000000000000000000000000000000000000000000000000000000815260040161082c93929190611b2c565b60405180910390fd5b61084484848484036000610bd8565b5b50505050565b600073ffffffffffffffffffffffffffffffffffffffff168373ffffffffffffffffffffffffffffffffffffffff16036108bd5760006040517f96c6fd1e0000000000000000000000000000000000000000000000000000000081526004016108b49190611b63565b60405180910390fd5b600073ffffffffffffffffffffffffffffffffffffffff168273ffffffffffffffffffffffffffffffffffffffff160361092f5760006040517fec442f050000000000000000000000000000000000000000000000000000000081526004016109269190611b63565b60405180910390fd5b61093a838383610daf565b505050565b60007f000000000000000000000000000000000000000000000000000000000000000073ffffffffffffffffffffffffffffffffffffffff163073ffffffffffffffffffffffffffffffffffffffff161480156109bb57507f000000000000000000000000000000000000000000000000000000000000000046145b156109e8577f000000000000000000000000000000000000000000000000000000000000000090506109f3565b6109f0610fd4565b90505b90565b600073ffffffffffffffffffffffffffffffffffffffff168273ffffffffffffffffffffffffffffffffffffffff1603610a685760006040517fec442f05000000000000000000000000000000000000000000000000000000008152600401610a5f9190611b63565b60405180910390fd5b610a7460008383610daf565b5050565b6000600760008373ffffffffffffffffffffffffffffffffffffffff1673ffffffffffffffffffffffffffffffffffffffff168152602001908152602001600020549050919050565b6060610af760057f000000000000000000000000000000000000000000000000000000000000000061106a90919063ffffffff16565b905090565b6060610b3260067f000000000000000000000000000000000000000000000000000000000000000061106a90919063ffffffff16565b905090565b6000600760008373ffffffffffffffffffffffffffffffffffffffff1673ffffffffffffffffffffffffffffffffffffffff1681526020019081526020016000206000815480929190600101919050559050919050565b6000610ba1610b9b61093f565b8361111a565b9050919050565b600080600080610bba8888888861115b565b925092509250610bca828261124f565b829350505050949350505050565b600073ffffffffffffffffffffffffffffffffffffffff168473ffffffffffffffffffffffffffffffffffffffff1603610c4a5760006040517fe602df05000000000000000000000000000000000000000000000000000000008152600401610c419190611b63565b60405180910390fd5b600073ffffffffffffffffffffffffffffffffffffffff168373ffffffffffffffffffffffffffffffffffffffff1603610cbc5760006040517f94280d62000000000000000000000000000000000000000000000000000000008152600401610cb39190611b63565b60405180910390fd5b81600160008673ffffffffffffffffffffffffffffffffffffffff1673ffffffffffffffffffffffffffffffffffffffff16815260200190815260200160002060008573ffffffffffffffffffffffffffffffffffffffff1673ffffffffffffffffffffffffffffffffffffffff168152602001908152602001600020819055508015610da9578273ffffffffffffffffffffffffffffffffffffffff168473ffffffffffffffffffffffffffffffffffffffff167f8c5be1e5ebec7d5bd14f71427d1e84f3dd0314c0f7b2291e5b200ac8c7c3b92584604051610da09190611647565b60405180910390a35b50505050565b600073ffffffffffffffffffffffffffffffffffffffff168373ffffffffffffffffffffffffffffffffffffffff1603610e01578060026000828254610df59190611bad565b92505081905550610ed4565b60008060008573ffffffffffffffffffffffffffffffffffffffff1673ffffffffffffffffffffffffffffffffffffffff16815260200190815260200160002054905081811015610e8d578381836040517fe450d38c000000000000000000000000000000000000000000000000000000008152600401610e8493929190611b2c565b60405180910390fd5b8181036000808673ffffffffffffffffffffffffffffffffffffffff1673ffffffffffffffffffffffffffffffffffffffff16815260200190815260200160002081905550505b600073ffffffffffffffffffffffffffffffffffffffff168273ffffffffffffffffffffffffffffffffffffffff1603610f1d5780600260008282540392505081905550610f6a565b806000808473ffffffffffffffffffffffffffffffffffffffff1673ffffffffffffffffffffffffffffffffffffffff168152602001908152602001600020600082825401925050819055505b8173ffffffffffffffffffffffffffffffffffffffff168373ffffffffffffffffffffffffffffffffffffffff167fddf252ad1be2c89b69c2b068fc378daa952ba7f163c4a11628f55a4df523b3ef83604051610fc79190611647565b60405180910390a3505050565b60007f8b73c3c69bb8fe3d512ecc4cf759cc79239f7b179b0ffacaa9a75d522b39400f7f00000000000000000000000000000000000000000000000000000000000000007f0000000000000000000000000000000000000000000000000000000000000000463060405160200161104f959493929190611be1565b60405160208183030381529060405280519060200120905090565b606060ff60001b831461108757611080836113b3565b9050611114565b81805461109390611a42565b80601f01602080910402602001604051908101604052809291908181526020018280546110bf90611a42565b801561110c5780601f106110e15761010080835404028352916020019161110c565b820191906000526020600020905b8154815290600101906020018083116110ef57829003601f168201915b505050505090505b92915050565b60006040517f190100000000000000000000000000000000000000000000000000000000000081528360028201528260228201526042812091505092915050565b60008060007f7fffffffffffffffffffffffffffffff5d576e7357a4501ddfe92f46681b20a08460001c111561119b576000600385925092509250611245565b6000600188888888604051600081526020016040526040516111c09493929190611c34565b6020604051602081039080840390855afa1580156111e2573d6000803e3d6000fd5b505050602060405103519050600073ffffffffffffffffffffffffffffffffffffffff168173ffffffffffffffffffffffffffffffffffffffff160361123657600060016000801b93509350935050611245565b8060008060001b935093509350505b9450945094915050565b6000600381111561126357611262611c79565b5b82600381111561127657611275611c79565b5b03156113af57600160038111156112905761128f611c79565b5b8260038111156112a3576112a2611c79565b5b036112da576040517ff645eedf00000000000000000000000000000000000000000000000000000000815260040160405180910390fd5b600260038111156112ee576112ed611c79565b5b82600381111561130157611300611c79565b5b03611346578060001c6040517ffce698f700000000000000000000000000000000000000000000000000000000815260040161133d9190611647565b60405180910390fd5b60038081111561135957611358611c79565b5b82600381111561136c5761136b611c79565b5b036113ae57806040517fd78bce0c0000000000000000000000000000000000000000000000000000000081526004016113a59190611705565b60405180910390fd5b5b5050565b606060006113c083611427565b90506000602067ffffffffffffffff8111156113df576113de611a73565b5b6040519080825280601f01601f1916602001820160405280156114115781602001600182028036833780820191505090505b5090508181528360208201528092505050919050565b60008060ff8360001c169050601f81111561146e576040517fb3512b0c00000000000000000000000000000000000000000000000000000000815260040160405180910390fd5b80915050919050565b600081519050919050565b600082825260208201905092915050565b60005b838110156114b1578082015181840152602081019050611496565b60008484015250505050565b6000601f19601f8301169050919050565b60006114d982611477565b6114e38185611482565b93506114f3818560208601611493565b6114fc816114bd565b840191505092915050565b6000602082019050818103600083015261152181846114ce565b905092915050565b600080fd5b600073ffffffffffffffffffffffffffffffffffffffff82169050919050565b60006115598261152e565b9050919050565b6115698161154e565b811461157457600080fd5b50565b60008135905061158681611560565b92915050565b6000819050919050565b61159f8161158c565b81146115aa57600080fd5b50565b6000813590506115bc81611596565b92915050565b600080604083850312156115d9576115d8611529565b5b60006115e785828601611577565b92505060206115f8858286016115ad565b9150509250929050565b60008115159050919050565b61161781611602565b82525050565b6000602082019050611632600083018461160e565b92915050565b6116418161158c565b82525050565b600060208201905061165c6000830184611638565b92915050565b60008060006060848603121561167b5761167a611529565b5b600061168986828701611577565b935050602061169a86828701611577565b92505060406116ab868287016115ad565b9150509250925092565b600060ff82169050919050565b6116cb816116b5565b82525050565b60006020820190506116e660008301846116c2565b92915050565b6000819050919050565b6116ff816116ec565b82525050565b600060208201905061171a60008301846116f6565b92915050565b60006020828403121561173657611735611529565b5b600061174484828501611577565b91505092915050565b60007fff0000000000000000000000000000000000000000000000000000000000000082169050919050565b6117828161174d565b82525050565b6117918161154e565b82525050565b600081519050919050565b600082825260208201905092915050565b6000819050602082019050919050565b6117cc8161158c565b82525050565b60006117de83836117c3565b60208301905092915050565b6000602082019050919050565b600061180282611797565b61180c81856117a2565b9350611817836117b3565b8060005b8381101561184857815161182f88826117d2565b975061183a836117ea565b92505060018101905061181b565b5085935050505092915050565b600060e08201905061186a600083018a611779565b818103602083015261187c81896114ce565b9050818103604083015261189081886114ce565b905061189f6060830187611638565b6118ac6080830186611788565b6118b960a08301856116f6565b81810360c08301526118cb81846117f7565b905098975050505050505050565b6118e2816116b5565b81146118ed57600080fd5b50565b6000813590506118ff816118d9565b92915050565b61190e816116ec565b811461191957600080fd5b50565b60008135905061192b81611905565b92915050565b600080600080600080600060e0888a0312156119505761194f611529565b5b600061195e8a828b01611577565b975050602061196f8a828b01611577565b96505060406119808a828b016115ad565b95505060606119918a828b016115ad565b94505060806119a28a828b016118f0565b93505060a06119b38a828b0161191c565b92505060c06119c48a828b0161191c565b91505092959891949750929550565b600080604083850312156119ea576119e9611529565b5b60006119f885828601611577565b9250506020611a0985828601611577565b9150509250929050565b7f4e487b7100000000000000000000000000000000000000000000000000000000600052602260045260246000fd5b60006002820490506001821680611a5a57607f821691505b602082108103611a6d57611a6c611a13565b5b50919050565b7f4e487b7100000000000000000000000000000000000000000000000000000000600052604160045260246000fd5b600060c082019050611ab760008301896116f6565b611ac46020830188611788565b611ad16040830187611788565b611ade6060830186611638565b611aeb6080830185611638565b611af860a0830184611638565b979650505050505050565b6000604082019050611b186000830185611788565b611b256020830184611788565b9392505050565b6000606082019050611b416000830186611788565b611b4e6020830185611638565b611b5b6040830184611638565b949350505050565b6000602082019050611b786000830184611788565b92915050565b7f4e487b7100000000000000000000000000000000000000000000000000000000600052601160045260246000fd5b6000611bb88261158c565b9150611bc38361158c565b9250828201905080821115611bdb57611bda611b7e565b5b92915050565b600060a082019050611bf660008301886116f6565b611c0360208301876116f6565b611c1060408301866116f6565b611c1d6060830185611638565b611c2a6080830184611788565b9695505050505050565b6000608082019050611c4960008301876116f6565b611c5660208301866116c2565b611c6360408301856116f6565b611c7060608301846116f6565b95945050505050565b7f4e487b7100000000000000000000000000000000000000000000000000000000600052602160045260246000fdfea264697066735822122002108999f165f418c73412d0ec8fc215777e92dd74ae88cc081e1c5484b74b3564736f6c63430008140033",
  "linkReferences": {},
  "deployedLinkReferences": {}
}